S0200000706F72745F6672656572746F735F61746D656761333238702E737265639B
S11300000C9449000C9471000C9471000C947100D0
S11300100C9471000C9471000C9471000C94710098
S11300200C9471000C9471000C9471000C944802AF
S11300300C9471000C9471000C9471000C94710078
S11300400C9402090C9471000C945E0A0C947100D7
S11300500C9471000C9471000C9471000C94710058
S11300600C9471000C9471007461736B20320074F1
S113007061736B20310048656C6C6F20776F726C14
S1130080642100696E696369616E646F2E2E0000DD
S1130090E80811241FBECFEFD8E0DEBFCDBF11E0CA
S11300A0A0E0B1E0E4E1F5E102C005900D92A433D3
S11300B0B107D9F727E0A4E3B1E001C01D92AB3A40
S11300C0B207E1F710E0C9E4D0E004C02197FE01D3
S11300D00E94820AC834D107C9F70E945E080C94B2
S11300E0880A0C94000060937C00422B4068409383
S11300F07A000895FC010396928381832FEF3FEFEA
S1130100348323839683858390878783108208951D
S1130110FC01118610860895CF93DF93EB0148818B
S113012059814F3F2FEF520721F4FC01A781B0857D
S11301300DC0DC01139601C0DF011296ED91FC9114
S113014013972081318142175307B0F71296ED912E
S1130150FC911397FB83EA83D583C483BD83AC836B
S11301601396DC93CE93129799878887FC0120819C
S11301702F5F2083DF91CF910895CF93DF93FC010C
S1130180A085B185C281D381848195819D838C832F
S1130190C481D581828193819B838A8311968D91B9
S11301A09C911297E817F90731F48481958112968E
S11301B09C938E931197118610868C9181508C9309
S11301C08C91DF91CF91089589EF90E0909389000D
S11301D080938800E0E8F0E080818C7F80838BE06E
S11301E080938100EFE6F0E080818260808308954F
S11301F031E1FC013083319722E220833197A3E37C
S1130200A08331976083319770833197108231973F
S113021060E8608331971082319762E060833197A0
S113022063E06083319764E06083319765E06083C5
S1130230319766E06083319767E06083319768E0C7
S11302406083319769E06083319760E1608331971F
S11302503083319732E13083319733E13083319702
S113026034E13083319735E13083319736E130839F
S1130270319737E13083319738E13083319739E171
S11302803083319730E23083319731E230833197D4
S11302902083319723E22083319740833197508321
S11302A0319726E22083319727E22083319728E291
S11302B02083319729E22083319720E320833197EB
S11302C021E32083869708950E94E400A09170079B
S11302D0B0917107CD91CDBFDD91DEBFFF91EF915C
S11302E0DF91CF91BF91AF919F918F917F916F914A
S11302F05F914F913F912F911F910F91FF90EF903C
S1130300DF90CF90BF90AF909F908F907F906F9031
S11303105F904F903F902F901F900F900FBE0F90C3
S1130320089581E008950F920FB6F8940F921F92EA
S113033011242F923F924F925F926F927F928F92ED
S11303409F92AF92BF92CF92DF92EF92FF920F9360
S11303501F932F933F934F935F936F937F938F9349
S11303609F93AF93BF93CF93DF93EF93FF93A091AA
S11303707007B09171070DB60D920EB60D920E94E2
S11303800C07A0917007B0917107CD91CDBFDD919D
S1130390DEBFFF91EF91DF91CF91BF91AF919F911C
S11303A08F917F916F915F914F913F912F911F9109
S11303B00F91FF90EF90DF90CF90BF90AF909F9000
S11303C08F907F906F905F904F903F902F901F90F1
S11303D00F900FBE0F9008950F920FB6F8940F92DE
S11303E01F9211242F923F924F925F926F927F92AD
S11303F08F929F92AF92BF92CF92DF92EF92FF9231
S11304000F931F932F933F934F935F936F937F9318
S11304108F939F93AF93BF93CF93DF93EF93FF9308
S1130420A0917007B09171070DB60D920EB60D92A2
S11304300E94DB0481110E940C07A0917007B09107
S11304407107CD91CDBFDD91DEBFFF91EF91DF91BB
S1130450CF91BF91AF919F918F917F916F915F9158
S11304604F913F912F911F910F91FF90EF90DF904B
S1130470CF90BF90AF909F908F907F906F905F9040
S11304804F903F902F901F900F900FBE0F900895A4
S11304900E94EC011895CF93DF93EC010E94CB04EA
S11304A08091340190913501892B31F489E391E0F5
S11304B090933501809334012091360130913701B6
S11304C0C9018C0F9D1F8B3D45E0940770F42817DC
S11304D0390770F4C0913401D0913501C20FD31F94
S11304E0909337018093360105C0C0E0D0E002C08C
S11304F0C0E0D0E00E94F505CE01DF91CF910895D0
S11305000895E0913807F09139078081811107C07F
S11305108FEF9FEF90931807809317070895E0914A
S11305203807F09139070580F681E02D80819181AB
S113053090931807809317070895CF93DF93EC01E6
S11305408F89988D0E948002CE010E948002DF91E3
S1130550CF9108956F927F928F929F92AF92BF92A4
S1130560CF92DF92EF920F931F93CF93DF93CDB788
S1130570DEB74C01D50157968D919C915897215027
S113058031093C01620E731E6115710589F416C0B0
S1130590822F90E0FB01E80FF91F3081D501A80FED
S11305A0B91F59963C938081882329F02F5F01C09D
S11305B020E0283068F3F50110A203C0D501599654
S11305C01C92B3E0BE1520F40F2EF3E0EF2EF02DB5
S11305D0F501E68AC50102960E948800C5010C96C1
S11305E00E948800D5011996BC92AE92189784E0B7
S11305F090E08E1991091D969C938E931C975396A7
S1130600BC92AE92529784E0F501B196DF011D923F
S11306108A95E9F7F50115A2A801B401C3010E9466
S1130620F800D5018D939C93C114D10419F0F601FF
S1130630B182A082DF91CF911F910F91EF90DF9053
S1130640CF90BF90AF909F908F907F906F900895C0
S1130650CF93C0E010C08C2F90E09C01220F331F79
S1130660220F331F220F331F820F931F845B984F77
S11306700E947A00CF5FC43070F383E497E00E9455
S11306807A008AE397E00E947A008DE297E00E9464
S11306907A0084E297E00E947A0083E497E09093E2
S11306A03907809338078AE397E09093370780935C
S11306B03607CF910895CF93DF93EC010FB6F894EA
S11306C00F92809122078F5F809322078091700799
S11306D090917107892B59F4D0937107C0937007D7
S11306E080912207813099F40E94280310C08091E0
S11306F01E0781110CC0E0917007F0917107968973
S11307008E89891720F0D0937107C0937007809168
S113071019078F5F809319078E8990911F07981787
S113072010F480931F0790E0FC01EE0FFF1FEE0F03
S1130730FF1FEE0FFF1F8E0F9F1FFC01E45BF84F9E
S11307400180F281E02DFD83EC83848195819F8378
S11307508E83A481B581CE01029613969C938E93C9
S1130760129795838483EE89F0E0CF01880F991F57
S1130770880F991F880F991FE80FF91FE45BF84F42
S1130780FB87EA8780818F5F80830F900FBE809103
S11307901E07882351F0E0917007F0917107968944
S11307A08E89981710F40E949301DF91CF910895D8
S11307B0CF93DF931CC00FB6F8940F92E0912907F2
S11307C0F0912A07C681D781CE0102960E94BD000E
S11307D080912207815080932207809123078150C2
S11307E0809323070F900FBECE010E949D0280913B
S11307F023078111E0CFDF91CF9108950E94D803A0
S113080080914C078230D0F30E949301F7CF0F936D
S11308101F93CF93DF93EC010091200710912107E0
S1130820809170079091710702960E94BD00C00FDD
S1130830D11FE0917007F0917107D383C283C01771
S1130840D10768F460917007709171078091360741
S1130850909137076E5F7F4F0E948C0017C06091A4
S113086070077091710780913807909139076E5F16
S11308707F4F0E948C008091170790911807C8172A
S1130880D90720F4D0931807C0931707DF91CF91AD
S11308901F910F9108952F923F924F925F926F9202
S11308A07F928F929F92AF92BF92CF92DF92EF92FC
S11308B0FF920F931F93CF93DF933C011B015A01C7
S11308C02901CA010E944B026C01892B71F086E256
S11308D090E00E944B02EC01892B19F0D88ECF8A4C
S11308E006C0C6010E94800202C0C0E0D0E020978A
S11308F091F0950140E050E0812C912C5E0167015C
S1130900E02E8201B101C3010E94AA02CE010E941D
S11309105B0381E001C08FEFDF91CF911F910F91B5
S1130920FF90EF90DF90CF90BF90AF909F908F900B
S11309307F906F905F904F903F902F900895EF922B
S1130940FF920F930F2EF5E1EF2EF7E0FF2EF02D1F
S113095000E020E030E045E550E061E071E08EEF3A
S113096093E00E944B04813081F4F8948FEF9FEF61
S1130970909318078093170781E080931E071092C5
S11309802107109220070E946401809100010F91B9
S1130990FF90EF900895809114078F5F8093140760
S11309A008950FB6F8940F92809120079091210733
S11309B00F900FBE08950F931F93CF93DF938091F1
S11309C01407811101C1C0912007D09121078E0124
S11309D00F5F1F4F10932107009320070115110586
S11309E0B9F48091380790913907209136073091F6
S11309F0370730933907209338079093370780934C
S1130A00360780911A078F5F80931A070E9481022C
S1130A1080911707909118070817190720F480E0B0
S1130A20B8C081E001C080E0E0913807F091390757
S1130A309081911107C02FEF3FEF30931807209357
S1130A401707A7C0E0913807F09139070580F681B0
S1130A50E02D0680F781E02D2281338102171307F0
S1130A6028F4309318072093170793C0A285B38501
S1130A702481358146815781E9015D834C83268138
S1130A80378144815581E9015B834A8311962D9115
S1130A903C911297AF014E5F5F4F2417350731F435
S1130AA02681378112963C932E93119713861286D2
S1130AB09C9191509C93A489B589109719F126852E
S1130AC0378560897189E9017D836C832089318947
S1130AD066857785E9017B836A8311966D917C91A4
S1130AE012979F01245F3F4F6217730731F42089E7
S1130AF0318912963C932E931197158A148A9C91EE
S1130B0091509C93268990911F07921710F420937B
S1130B101F0730E0D901AA0FBB1FAA0FBB1FAA0FE2
S1130B20BB1F2A0F3B1FD901A45BB84F11960D9030
S1130B30BC91A02DB583A48314962D913C91159757
S1130B403783268314962D913C911597E9015B8395
S1130B504A8315965C934E931497A689B0E09D0141
S1130B60220F331F220F331F220F331FA20FB31F75
S1130B70A45BB84FB387A2879C919F5F9C932689FF
S1130B80E0917007F09171079689291708F049CF11
S1130B904BCFE0917007F0917107268930E0F9019D
S1130BA0EE0FFF1FEE0FFF1FEE0FFF1F2E0F3F1F55
S1130BB0F901E45BF84F9081923008F081E0909164
S1130BC01B0791110CC00CC080911C0790911D074C
S1130BD0019690931D0780931C0780E001C081E07B
S1130BE0DF91CF911F910F910895CF93DF930FB6AB
S1130BF0F8940F9280911407815080931407809188
S1130C0014078111BFC080912207811196C0BDC015
S1130C10E0913207F09133070680F781E02DA48933
S1130C20B589C685D785808991899D838C83C08940
S1130C30D189868597859B838A8311962D913C91D2
S1130C401297CF010C962817390731F480899189BE
S1130C5012969C938E931197158A148A8C918150C5
S1130C608C93A285B385C481D581868197819D8328
S1130C708C83C681D781848195819B838A831196D5
S1130C808D919C9112979F012E5F3F4F821793077E
S1130C9031F48681978112969C938E9311971386D3
S1130CA012868C9181508C93868990911F07981796
S1130CB010F480931F0790E0DC01AA0FBB1FAA0F5A
S1130CC0BB1FAA0FBB1F8A0F9B1FDC01A45BB84F7D
S1130CD011960D90BC91A02DB583A48314968D918B
S1130CE09C911597978386831496CD91DC911597E3
S1130CF03B832A8315963C932E931497A689B0E0E0
S1130D00CD01880F991F880F991F880F991FA80F6D
S1130D10B91FA45BB84FB387A2878C918F5F8C9364
S1130D209689A0917007B091710756968C91981787
S1130D3030F081E080931B0702C0E0E0F0E0809196
S1130D402D07811165CFEF2B11F00E948102C09114
S1130D501C07D0911D07209769F00E94DB048823AB
S1130D6019F081E080931B072197B9F710921D07B2
S1130D7010921C0780911B07882331F00E94930175
S1130D8081E003C080E001C080E00F900FBEDF91DE
S1130D90CF9108950F931F93CF93DF938C01EB01B1
S1130DA00E94CB044091200750912107F801208133
S1130DB03181C9018C0F9D1F4217530740F48217DC
S1130DC0930768F44817590760F0C0E00FC0821712
S1130DD0930748F04817590740F0C0E007C0C0E047
S1130DE005C0C1E003C0C1E001C0C1E0F8019183C6
S1130DF08083CC2329F060E0841B950B0E940704B8
S1130E000E94F505811102C00E9493018C2FDF918D
S1130E10CF911F910F91089580911407882321F099
S1130E2081E080931B07089510921B0720911F07F0
S1130E3001C02150822F90E0FC01EE0FFF1FEE0F46
S1130E40FF1FEE0FFF1FE80FF91FE45BF84F30811F
S1130E50332379F3AC01440F551F440F551F440F3E
S1130E60551F480F591FDF010180F281E02D0280D8
S1130E70F381E02D1296FC93EE931197415B584F4A
S1130E80E417F50729F442815381FD01528341831C
S1130E90FC01EE0FFF1FEE0FFF1FEE0FFF1F8E0F63
S1130EA09F1FFC01E45BF84F0180F281E02D8681F5
S1130EB09781909371078093700720931F0708957B
S1130EC08AB180648AB984B1846084B984B1886049
S1130ED084B984B1826084B98AB180688AB984B1E2
S1130EE0806284B984B1816084B987B1846087B930
S1130EF08BB18F7B8BB985B18B7F85B985B1877FAA
S1130F0085B985B18D7F85B98BB18F778BB985B163
S1130F108F7D85B985B18E7F85B988B1886088B9A0
S1130F2088B18B7F88B98AB18B7F8AB98AB18F7D6A
S1130F308AB98AB1877F8AB98AB18F7E8AB987B123
S1130F408E7F87B984B18F7E84B987B18D7F87B94D
S1130F500895833001F128F4813049F0823089F01A
S1130F600895853061F108F1863099F1089566237A
S1130F7021F08BB180648BB908958BB18F7B8BB9D1
S1130F800895662321F085B1846085B9089585B1FB
S1130F908B7F85B90895662321F085B1886085B972
S1130FA0089585B1877F85B90895662321F085B1B9
S1130FB0826085B9089585B18D7F85B908956623CA
S1130FC021F08BB180688BB908958BB18F778BB981
S1130FD00895662321F085B1806285B9089585B1AD
S1130FE08F7D85B908958330B1F028F4813049F0BC
S1130FF0823061F023C08530B9F090F08630C9F0BA
S11310001DC08BB186FB882780F9089585B182FBCA
S1131010882780F9089585B183FB882780F908958E
S113102085B18695817008958BB1881F8827881FA4
S1131030089585B185FB882780F9089580E0089597
S1131040019749F46F3F7F4F31F484E291E090932C
S11310507307809372070895CF93DF9300D0CDB7C1
S1131060DEB7FC011081E280F3800E94D1049A83F0
S11310708983153039F46FE670E082E797E00E94C7
S1131080290A08C0163031F468E670E082E797E078
S11310900E94290A812F0E94F307882329F060E027
S11310A0812F0E94A90704C061E0812F0E94A90733
S11310B0B701CE0101960E94CA06DBCFCF93DF931E
S11310C0CDB7DEB729970FB6F894DEBF0FBECDBFFC
S11310D00E9460070E94EF0867E670E082E797E0ED
S11310E00E94690920E047E060E0CE0101960E9479
S11310F0730063E870E082E797E00E94290A80E0C9
S11311008330A0F590E0923030F52BB120682BB9F4
S113111025B1206225B925B1216025B92FEF37EE1D
S113112043E0215030404040E1F700C000002BB1C3
S11311302F772BB925B12F7D25B925B12E7F25B960
S11311402FEF31EE44E0215030404040E1F700C041
S113115000009F5FD8CF9FEF2BE43DE191502040EA
S11311603040E1F700C000008F5FCACF66E770E04F
S113117082E797E00E94290A85E090E09B838A83B6
S11311808CE291E09D838C8386E090E09F838E8344
S113119088EE93E099878887E12CF12C01E09E0189
S11311A02E5F3F4F45E550E066E071E08CE298E049
S11311B00E944B049E012A5F3F4F45E550E060E1E9
S11311C071E08CE298E00E944B040E949F04FFCFE0
S11311D06FEF7FEF81E090E00E94200808957894FB
S11311E084B5826084BD84B5816084BD85B5826028
S11311F085BD85B5816085BDEEE6F0E080818160C6
S1131200808308951F920F920FB60F9211240F93AB
S11312101F932F933F934F935F936F937F938F937A
S11312209F93AF93BF930091770710917807209114
S1131230790730917A0790917607B901A8014F5F39
S11312405F4F6F4F7F4F83E0890F8D3740F086E803
S1131250890FB901A8014E5F5F4F6F4F7F4F809395
S113126076074093770750937807609379077093D4
S11312707A0780917B0790917C07A0917D07B091BC
S11312807E070196A11DB11D80937B0790937C0777
S1131290A0937D07B0937E07BF91AF919F918F91EB
S11312A07F916F915F914F913F912F911F910F917A
S11312B00F900FBE0F901F9018952FB7F894609160
S11312C07707709178078091790790917A072FBFFB
S11312D00895DC017093C5006093C400603171050A
S11312E031F4E0ECF0E080818260808305C0E0ECC2
S11312F0F0E090819D7F908388E98093C10086E02F
S11313008093C20083E897E013969C938E93129780
S1131310789408958091C00085FFFCCF6093C60047
S113132008958091810790918207089580918007A4
S11313300895109280070895F894109282071092ED
S1131340810710927F077894089580917F0708950C
S11313508F929F92AF92BF92CF92DF92EF92FF92C1
S11313601F93CF93DF93EC0190918007992379F138
S1131370162F109280070E945D096B017C010E9468
S11313805D09DC01CB018C199D09AE09BF09812ED1
S1131390912CA12CB12C88159905AA05BB0548F4FC
S11313A080918007882359F3109280070E945D0979
S11313B0E6CFE0908107F0908207E881F98102840A
S11313C0F385E02DCE0109958E2D9F2D02C080E07E
S11313D090E0DF91CF911F91FF90EF90DF90CF903D
S11313E0BF90AF909F908F900895EF92FF921F93BC
S11313F0CF93DF937C01EB01FE011491D701ED91B2
S1131400FC910280F381E02D612FC701099521969B
S11314101111F2CFDF91CF911F91FF90EF900895BA
S11314200F931F93CF93DF938C01D62FC0E0CD177A
S113143058F4D801ED91FC910280F381E02D6AE02B
S1131440C8010995CF5FF3CFDF91CF911F910F9121
S11314500895CF93DF93EC010E94F50961E0CE017A
S11314600E94100ADF91CF91089580918107909195
S113147082078897A8F4E0918107F0918207809110
S1131480C600ED57F84F80838091810790918207C1
S11314900196909382078093810710927F070AC078
S11314A08091C00088231CF48091C600F9CF81E0AC
S11314B080937F0781E08093800708951F920F92A5
S11314C00FB60F9211242F933F934F935F936F9313
S11314D07F938F939F93AF93BF93EF93FF930E9458
S11314E0350AFF91EF91BF91AF919F918F917F91B9
S11314F06F915F914F913F912F910F900FBE0F907D
S11315001F901895EE0FFF1F0590F491E02D09949C
S1071510F894FFCF79
S11315140349444C45004C454420426C696E6B00BD
S11315244C4544204F7468657220426C696E6B00AC
S11315340000000069098A099109960999099C091E
S1071544A509A80940
S9030000FC
